:100000000000012031020000390200003D02000022
:100010008502000089020000D102000000000000FB
:1000200000000000000000000000000019030000B4
:100030001D0300000000000021030000F50F000078
:1000400035030000350300003503000035030000D0
:1000500035030000350300003503000035030000C0
:1000600035030000350300003503000035030000B0
:1000700035030000350300003503000035030000A0
:100080003503000035030000350300003503000090
:100090003503000035030000350300003503000080
:1000A0003503000035030000350300003503000070
:1000B0003503000035030000350300003503000060
:1000C0003503000035030000350300003503000050
:1000D0003503000035030000350300003503000040
:1000E0003503000035030000350300003503000030
:1000F0003503000035030000350300003503000020
:10010000350300003503000035030000350300000F
:1001100035030000350300003503000000B583B04F
:1001200000F078FD304B314A1360314A1360314B97
:10013000314A03E011681960043304322F498B42BD
:10014000F8D32A4B1A682E4B9A4204D1284B1A68CE
:100150002C4B9A4200D0FEE7234B2B4A13602B4ACC
:1001600013602B4B02E000221A600433294A9342A9
:10017000F9D3254B1B6813B9244B1B6803B1FEE769
:1001800000F054FD01A8694600F00EF9224C234B03
:100190001C1BA410002504E01F4B53F82530984782
:1001A0000135AC42F8DC1E4C1E4B1C1BA410002574
:1001B00004E01B4B53F8253098470135AC42F8DC7E
:1001C0000198009900F02AFF0546174C174B1C1B9D
:1001D000A41004E0013C144B53F824309847002C41
:1001E000F8DC284600F0BCF8BABADECA00000020ED
:1001F0007400002000000020641B00007800002034
:100200007856341232547698780000201401002079
:100210007800002018010020600300006003000047
:100220006003000060030000600300006003000042
:1002300008B5FFF773FF00BF00BEFEE71EF0040F16
:100240000CBFEFF30880EFF309807146364A104780
:100250002DE9F04182B007468846084B5D6B9C6BE8
:100260009E6A074800F084FCCDF80080384631468D
:100270002A46234600F0DEFC00BEFEE700ED00E06B
:10028000B01A000000BEFEE71EF0040F0CBFEFF333
:100290000880EFF309807146244A10472DE9F041A8
:1002A00082B007468846084B5D6B9C6B9E6A074888
:1002B00000F05EFCCDF80080384631462A462346E1
:1002C00000F0B8FC00BEFEE700ED00E0C01A000040
:1002D0001EF0040F0CBFEFF30880EFF309807146A6
:1002E000134A10472DE9F04182B007468846084B73
:1002F0005D6B9C6B9E6A074800F03AFCCDF800806D
:10030000384631462A46234600F094FC00BEFEE7FC
:1003100000ED00E0CC1A000000BEFEE700BEFEE7E4
:1003200000BEFEE770470000510200009D02000081
:08033000E502000000BEFEE73B
:10033800641B00000000002078000020641B0000FF
:1003480000000010000000107800002018010020B4
:0803580000000010000000107D
:10036000FEE700BF08B50D4B1B6813B90C4A0B4BD9
:100370001A600A4B1A68C31C23F00303134409498B
:100380008B4206D900F090FE0C2303604FF0FF3043
:1003900008BD02490B60104608BD00BF7C0000206C
:1003A0001801002000FC002001230360014B0B60BA
:1003B000704700BF04000020B0F1402F5CD0464BD6
:1003C00098425BD0A3F5A623984259D003F5A82301
:1003D000984257D0A3F5A623984255D003F5A823F9
:1003E000984253D0A3F5A623984251D003F5A823F1
:1003F00098424FD0A3F55C3398424DD003F560335B
:1004000098424BD0A3F55C33984249D003F5603352
:10041000984247D0A3F55C33984245D003F560334A
:10042000984243D0A3F55C33984241D003F5603342
:1004300098423FD0A3F5083398423DD003F50C33E2
:1004400098423BD003F58053984239D003F580534E
:10045000984237D003F58053984235D003F5805346
:10046000984233D003F58053984231D003F580533E
:1004700098422FD10120704701207047012070471A
:10048000012070470120704701207047012070470C
:1004900001207047012070470120704701207047FC
:1004A00001207047012070470120704701207047EC
:1004B00001207047012070470120704701207047DC
:1004C00001207047012070470120704701207047CC
:1004D00001207047002070470080054070B5054638
:1004E0000C461646FFF768FF20B9164840F21F1168
:1004F00000F08AFD022E04D9124840F2211100F0CA
:1005000083FD16F0010F05D005F58062D5F80034A3
:10051000234305E005F58062D5F8003423EA04039F
:10052000136016F0020F05D005F58463D5F820247A
:10053000144305E005F58463D5F8202422EA040479
:100540001C6070BD18190000F8B504460D4617462A
:100550001E46FFF731FF20B958484FF4007100F0F4
:1005600053FD7B1E012B08D9042F06D00C2F04D07D
:1005700052484FF4017100F047FD082E0FD00A2EAB
:100580000DD00C2E0BD0092E09D00B2E07D00D2E1E
:1005900005D026B1494840F20B2100F035FD17F097
:1005A000010F05D004F5A062D4F800352B4305E017
:1005B00004F5A062D4F8003523EA0503136017F0B0
:1005C000020F05D004F20452D4F804352B4305E0A1
:1005D00004F20452D4F8043523EA0503136017F03B
:1005E000040F05D004F5A162D4F808352B4305E0CB
:1005F00004F5A162D4F8083523EA0503136017F067
:10060000080F05D004F5A362D4F818352B4305E094
:1006100004F5A362D4F8183523EA0503136016F035
:10062000010F05D004F20C52D4F80C352B4305E031
:1006300004F20C52D4F80C3523EA0503136016F0CB
:10064000020F05D004F5A262D4F810352B4305E063
:1006500004F5A262D4F8103523EA0503136016F0FE
:10066000040F05D004F21452D4F814352B4305E0DE
:1006700004F21452D4F8143523EA0503136016F07B
:10068000080F05D004F21C52D4F81C352B4305E0AA
:1006900004F21C52D4F81C3523EA050313602EB96A
:1006A00004F5A563D4F82825154305E004F5A563F2
:1006B000D4F8282522EA05051D60F8BD18190000A8
:1006C00070B504460D461646FFF776FE20B904487D
:1006D0004FF4627100F098FC44F8256070BD00BFD3
:1006E0001819000038B505460C46FFF765FE20B91D
:1006F000084840F2F44100F087FC284621460122D8
:100700000823FFF721FF284621460122FFF7E6FED6
:1007100038BD00BF18190000A0F58013013B012B64
:1007200040F23181D34B984200F02F8103F5807362
:10073000984200F02C8103F50073984200F0298163
:1007400003F18053A3F54073984200F0248103F530
:100750008073984200F0218103F50073984200F005
:100760001E81C54B984200F01C81C44B984200F09A
:100770001A8103F11023984200F01781C04B984270
:1007800000F01581BF4B984200F01381013398426D
:1007900000F011810233984200F00F810433984237
:1007A00000F00D810833984200F00B81103398421D
:1007B00000F009812033984200F0078140339842CD
:1007C00000F005818033984200F00381AE4B9842DF
:1007D00000F001810133984200F0FF80013398421C
:1007E00000F0FD800133984200F0FB800133984215
:1007F00000F0F9800133984200F0F780013398420D
:1008000000F0F5800133984200F0F380402800F0BA
:10081000F280B0F1102F00F0F0809C4B984200F075
:10082000EE809B4B984200F0EC800133984200F040
:10083000EA800133984200F0E8800133984200F0EA
:10084000E680944B984200F0E48003F18053A3F5D6
:100850007063984200F0DF808F4B984200F0DD809B
:100860008E4B984200F0DB808D4B984200F0D9808F
:100870008C4B984200F0D780B0F1101F00F0D5806B
:10088000894B984200F0D380884B984200F0D18089
:1008900003F58073984200F0CE80A3F5F873984278
:1008A00000F0CB801033984200F0C980804B984212
:1008B00000F0C7800133984200F0C5807D4B98421C
:1008C00000F0C3807C4B984200F0C1800133984215
:1008D00000F0BF800233984200F0BD80043398429C
:1008E00000F0BB80754B984200F0B980013398420C
:1008F00000F0B780724B984200F0B5800133984207
:1009000000F0B3800233984200F0B1806D4B984202
:1009100000F0E0800133984200F0DE80013398421D
:1009200000F0DC800133984200F0DA800133984215
:1009300000F0D880B0F1202F00F0D680624B9842B2
:1009400000F0D480082800F0D380604B984200F07B
:10095000D1805F4B984200F0CF800133984200F085
:10096000CD800133984200F0CB800133984200F0F3
:10097000C9800133984200F0C7800133984240F0AB
:10098000C580012070470120704701207047012079
:1009900070470120704701207047012070470120F7
:1009A00070470120704701207047012070470120E7
:1009B00070470120704701207047012070470120D7
:1009C00070470120704701207047012070470120C7
:1009D00070470120704701207047012070470120B7
:1009E00070470120704701207047012070470120A7
:1009F0007047012070470120704701207047012097
:100A00007047012070470120704701207047012086
:100A10007047012070470120704701207047012076
:100A20007047012070470120704701207047012066
:100A30007047012070470120704701207047012056
:100A40007047012070470120704701207047012046
:100A50007047012070470120704701207047012036
:100A60007047012070470120704701207047012026
:100A7000704700BF00011000005800F00040101047
:100A8000005400F001000020090800F000400010B0
:100A9000022000F000101010004800F0800000302C
:100AA000005000F010000030014000F00001001084
:100AB000021C00F02000003001001010040400F0BF
:100AC00001000010031800F00100102000101000B9
:100AD000005C00F001207047012070470120704742
:100AE00001207047012070470120704701207047A6
:100AF0000120704701207047012070470120704796
:100B00000120704701207047012070470020704786
:100B100010B50446FFF700FE20B9124840F29631A6
:100B200000F072FA04F07043B3F1704F0ED1C4F3C9
:100B300007220D4B1344C3F313035B01E4B243EAF2
:100B4000840444F084440123236010BD220F074B2A
:100B500053F822201168A3B2C4F30444A3400B430A
:100B6000136010BD3819000000E60F405C1900004A
:100B70000FB400B583B004AB53F8042B01930848BD
:100B8000802100F0C9FA011E03DD054800F03EF89F
:100B90000146084603B05DF804EB04B0704700BF9F
:100BA0008400002010B5044600F084FA0146204677
:100BB00000F02CF80248012100F028F810BD00BF19
:100BC0002C1A000010B400221AE04FF06043D3F852
:100BD000803E13F0010F06D04FF06043D3F8003E83
:100BE00013F0010F01D110460DE04FF060431B6878
:100BF000002BFAD004784FF060431C7001320130B2
:100C00008A42E2D308465DF8044B704708B5FFF707
:100C1000D9FF08BD08B500F09FF9024B024A9A605F
:100C200008BD00BF00ED00E00000000008B500F0C6
:100C300079F808BDF8B504460D4617461E46264805
:100C4000FFF796FF25482168FFF792FF2448616867
:100C5000FFF78EFF2348A168FFF78AFF2248E1686B
:100C6000FFF786FF21482169FFF782FF204861696D
:100C7000FFF77EFF1F48A169FFF77AFF1E48E16971
:100C8000FFF776FF1D48FFF773FF1D482946FFF762
:100C90006FFF1C4CE16A1C48FFF76AFF216B1B4881
:100CA000FFF766FFE16B1A48FFF762FF15F0800F50
:100CB00003D018483946FFF75BFF15F4004F03D007
:100CC00015483146FFF754FF1448FFF751FF144809
:100CD0000699FFF74DFFF8BD94190000A419000014
:100CE000B4190000C4190000D4190000E419000070
:100CF000F4190000041A0000141A0000241A00005D
:100D0000301A000000ED00E0401A0000501A000008
:100D1000601A0000701A0000801A0000901A00008B
:100D2000981A0000794A136E126F002A76DA10B40E
:100D300012F4006057D0C3F38314C2F302110229E6
:100D40004BD0032946D009B1714C49E0162C0DD87F
:100D5000DFE804F0450E111316181B1D202325276C
:100D6000292B2E30330C3537393B3D00684C37E0AA
:100D70004FF4E11434E0674C32E04FF416142FE0E6
:100D8000654C2DE04FF461142AE0644C28E04FF4E8
:100D90007A1425E04FF4960422E0614C20E0614C87
:100DA0001EE0614C1CE0614C1AE04FF4E10417E0D6
:100DB0005F4C15E04FF4FA0412E05E4C10E05E4C1C
:100DC0000EE05E4C0CE05E4C0AE05E4C08E04FF436
:100DD0007A0405E047F2305402E05B4C00E05B4CE3
:100DE0005B490C6002E05B4C59490C6013F4800FC6
:100DF00000F0898040B1C2F3C552013254490B68FA
:100E0000B3FBF2F20A607EE0C2F3C55201325049F0
:100E10000B68B3FBF2F252080A6074E013F400614D
:100E200057D0C3F38310C3F30112022A4BD0032A15
:100E300046D00AB1364A49E016280DD8DFE800F05E
:100E4000450E111316181B1D20232527292B2E3084
:100E5000330C3537393B3D002D4A37E04FF4E11272
:100E600034E02C4A32E04FF416122FE02A4A2DE0EB
:100E70004FF461122AE0294A28E04FF47A1225E063
:100E80004FF4960222E0264A20E0264A1EE0264A37
:100E90001CE0264A1AE04FF4E10217E0244A15E06C
:100EA0004FF4FA0212E0234A10E0234A0EE0234AEC
:100EB0000CE0234A0AE0234A08E04FF47A0205E0F6
:100EC00047F2305202E0204A00E0204A2048026007
:100ED00002E020481E4A106013F4800F15D041B183
:100EE000C3F3C35301331A490A68B2FBF3F20A6031
:100EF0007047C3F3C353013315490A68B2FBF3F3D8
:100F00005B080B6070475DF8044B704700E00F40D2
:100F1000001BB70080841E00999E360000093D002A
:100F2000404B4C0000204E00808D5B0000C05D00F7
:100F300000127A00809698000080BB00C0E8CE00C6
:100F4000647ADA000024F400C0C62D0040420F008D
:100F50000C0000200084D717194B1A4A1A6702F5B3
:100F6000612202F2C1221A66174A1A66174A1A67E4
:100F7000002300E00133B3F57A7FFBD3104B144A12
:100F80001A66144A1A67002300E00133B3F57A7F2A
:100F9000FBD3114A0A4B1A66094B1B6D13F0400F25
:100FA000FAD0074B0D4A1A664FF0C0721A67002339
:100FB00000E0013342F20F729342FAD9704700BF4A
:100FC00000E00F401028800782299E010028800140
:100FD00082099E01000880018209DE018201DE0192
:100FE000034B1860024B1B68002BFBD1704700BFFE
:100FF00004010020034B1B681BB1024A1368013B2C
:10100000136070470401002008B503460A460248F1
:101010001946FFF7ADFD08BDDC1A000010B51948F0
:10102000FFF7C0FD184C19482168FFF7A1FD1848CB
:10103000FFF76EFD17480121FFF754FB2368164A9E
:10104000A2FB03239B09013BB3F1807F09D2134A22
:101050005360E021124B83F8231000239360072391
:10106000136000244FF47A70FFF7BAFF0134094887
:10107000012104EA0102FFF723FB0A482146FFF79A
:1010800077FDEFE7F41A00000C000020081B0000B9
:101090002000002000500240D34D621010E000E01C
:1010A00000ED00E0201B0000014B1868704700BFF6
:1010B00070000020034613F8012B002AFBD1181AF8
:1010C0000138704730B5141E9BB0054604DA8B23F7
:1010D00003604FF0FF301CE04FF40272ADF80C20BB
:1010E0000CBF224604F1FF32029205924FF6FF72C6
:1010F00000910491ADF80E2069461A461E9B00F03F
:1011000075F8431CBCBF8B232B6014B1009B0022DD
:101110001A701BB030BD000073B506460D4614466C
:101120000093044B314618682A462346FFF7CAFF4E
:1011300002B070BD700000202DE9F0478E68824635
:10114000B3420C469046994640D38A8912F4906F78
:101150003AD02568096902236F1A656905EB4505D0
:1011600095FBF3F57B1C4B449D4238BF1D46530550
:101170000FD5294600F03AFB064698B121693A4658
:1011800000F0CAFAA38923F4906343F08003A3819B
:1011900013E02A4600F080FB064670B950462169EC
:1011A00000F0E0FA0C23CAF80030A3894FF0FF30BA
:1011B00043F04003A381BDE8F08726613E442660EA
:1011C0004E466561ED1BA560B14500D24E463246E4
:1011D0002068414600F0ABFAA36800209B1BA36087
:1011E00023681E442660BDE8F08700002DE9F04327
:1011F0009DB003938B8906461C060D4690460CD580
:101200000B6953B9402100F0F1FA2860286110B948
:101210000C233360CCE040236B610023099320232F
:101220008DF8293030238DF82A3043461C4613F8B8
:10123000012B1AB9B4EB08090FD002E0252AF5D129
:10124000F8E73046294642464B46FFF775FF013026
:1012500000F0A980099B4B4409932378002B00F0F0
:10126000A28000234FF0FF32049307930592069368
:101270008DF853301A9304F101084446DFF8489181
:1012800021784846052200F039FA08F10108049B4C
:1012900030B1C9EB00000122824013430493ECE714
:1012A000D80644BF20228DF85320190744BF2B22B3
:1012B0008DF8532022782A2A02D0079923460EE07F
:1012C000039A0134111D12680391002ABBBF5242D8
:1012D00043F0020307920792B8BF04930AE01C464A
:1012E00022780133303A092A03D80A2000FB012171
:1012F000F5E7079123782E2B1AD163782A2B0AD190
:10130000039B02341A1D1B680392002BB8BF4FF0D9
:10131000FF3305930CE0611C00220C462378013159
:10132000303B092B03D80A2000FB0232F5E7059277
:10133000DFF8988021784046032200F0DFF938B1C9
:10134000049AC8EB00004023834013430493013404
:1013500021781A48062204F101088DF8281000F0BF
:10136000CDF988B1164B33B9039B073323F007033C
:101370000833039313E003AB0093304604A92A46D5
:10138000104BAFF3008007E003AB0093304604A995
:101390002A460C4B00F092F8421C074603D0099BEA
:1013A0003B44099341E7AB895B0601D4099801E00E
:1013B0004FF0FF301DB0BDE8F08300BF381B0000C8
:1013C00000000000391100002E1B0000341B00003B
:1013D0002DE9F84391461F468A680B6906469342F9
:1013E000B8BF1346C9F8003091F843200C46DDF829
:1013F000208012B10133C9F800302368990642BF3A
:10140000D9F800300233C9F80030256815F0060518
:101410001CD094F843302268003318BF0123920691
:101420001FD5E118302081F843005A1C94F845106C
:101430002244023382F8431013E03046394604F167
:1014400019020123C047013007D00135E368D9F8FC
:1014500000209B1A9D42F0DBDBE74FF0FF30BDE838
:10146000F8833046394604F14302C0470130F4D0D6
:101470002268D9F80050E36802F00602042A08BF87
:101480005D1B2269A3680CBF25EAE5750025934220
:10149000C4BF9B1AED184FF00009A9450ADA30467F
:1014A000394604F11A020123C0470130D5D009F1B1
:1014B0000109F2E70020BDE8F88300002DE9FF41B3
:1014C0000C461746227E98466E2A06460A9B01F174
:1014D000430100F0B08012D8632A23D00AD8002A32
:1014E00000F0BD80582A40F0CC8084F84520DFF819
:1014F00004E257E0642A1ED0692A1CD0C1E0732A96
:1015000000F0B18009D86F2A2ED0702A40F0B9803F
:10151000226842F0200222603FE0752A24D0782A17
:101520003BD0AEE01A6804F14205111D1960136842
:1015300084F84230A9E020681A6810F0800F02D0C9
:10154000101D186008E010F0400F02F10400186050
:1015500002D0B2F9003000E01368002B3EDA2D22F1
:101560005B4284F8432039E020681A6810F0800F4D
:1015700002D0101D186007E010F0400F02F10400C7
:10158000186001D0138800E01368227EDFF864E160
:101590006F2A0CBF08220A221CE07822DFF858E1EB
:1015A00084F845202268186812F0800F00F10405C5
:1015B0001D6003D1550601D5038800E00368D007FC
:1015C00044BF42F0200222601BB9226822F02002B0
:1015D00022601022002084F8430002E0DFF814E1CA
:1015E0000A226568002DA8BF2068A560A4BF20F06E
:1015F0000400206003B965B10D46B3FBF2F002FBB5
:1016000010331EF8033005F8013D03460028F4D1DD
:1016100000E00D46082A0BD12368DA0708D52369B4
:1016200062689A42DEBF302305F8013C05F1FF35C0
:10163000491B21612EE025681A6815F0800F60694A
:1016400003D0151D1D60136808E015F0400F02F16E
:1016500004051D60136801D0188000E018600023A5
:1016600023610D4616E01A68111D196015680021E6
:101670002846626800F042F808B1401B6060636869
:1016800004E004F1420584F8422001232361002391
:1016900084F84330CDF800803046214603AA3B460B
:1016A000FFF796FE013002D14FF0FF301FE03046C9
:1016B00039462A462369C0470130F5D023689B0785
:1016C00005D4E068039B9842B8BF18460FE0002598
:1016D000E368039A9B1A9D42F3DA3046394604F1D7
:1016E00019020123C0470130DED00135F0E704B014
:1016F000BDE8F0813F1B0000501B000010B5C9B2CF
:1017000002449042034605D01C7801308C42F8D147
:10171000184610BD002010BD10B5431E0A4491426A
:1017200004D011F8014B03F8014FF8E710BD8142D6
:1017300010B501EB020301D3421E0BE09842FBD22D
:101740008118D21AD34204D013F8014D01F8014D8B
:10175000F8E710BD994204D011F8014B02F8014F8F
:10176000F8E710BD30B500293CD051F8042C0B1F10
:101770001D49002AB8BF9B180A680C4612B95A6066
:101780000B6030BD93420DD219685818904201BFCA
:101790005A5852181A60426823605A6030BD994204
:1017A00003D80A4651680029F9D1146815199D42D9
:1017B0000AD11B682344D0188842136012D10868EC
:1017C000034413604B680CE002D90C23036030BD66
:1017D0001C681819884201BF086849680019186018
:1017E0005960536030BD00BF0C01002070B5CC1CA7
:1017F00024F0030408340C2C38BF0C24002C0646BB
:1018000003DA0C233360002070BD8C42F9D3204AE8
:10181000136810461946A1B10A68121B0ED40B2A90
:1018200003D90A608B188C501FE08B420BBF5A689B
:101830004A6802605A6018BF0B4616E00B464968BA
:10184000E9E7144D2B681BB9304600F04BF82860CF
:101850003046214600F046F8421C0346D1D0C51C54
:1018600025F0030585420AD11C6003F10B001A1D07
:1018700020F00700821A0AD05142995070BD3046BC
:10188000E91A00F02FF80130BBD02B46ECE770BD11
:101890000C01002008010020F8B5074615460E4649
:1018A00021B91146BDE8F840FFF7A0BF1AB9FFF70C
:1018B00059FF2846F8BD00F025F8A8420ED2384658
:1018C0002946FFF793FF044650B131462A46FFF7F9
:1018D00023FF38463146FFF745FF01E03046F8BDAB
:1018E0002046F8BD38B5064C00230546084623605F
:1018F000FEF738FD431C02D1236803B12B6038BDCD
:101900001001002051F8040C0028BEBF091851F83E
:10191000043CC018043870472E2E2F7379737465F9
:101920006D2F7372632F6472697665726C69622FB2
:101930006770696F2E6300002E2E2F7379737465A4
:101940006D2F7372632F6472697665726C69622F92
:1019500073797363746C2E630000000000E10F4024
:1019600004E10F4008E10F406D61696E2861726704
:10197000633D25642C20617267763D5B00000000AA
:101980002C20000022257322000000005D293B0A64
:1019900000000000537461636B206672616D653AEC
:1019A0000A000000205230203D2020253038580AFF
:1019B00000000000205231203D2020253038580AF8
:1019C00000000000205232203D2020253038580AE7
:1019D00000000000205233203D2020253038580AD6
:1019E0000000000020523132203D20253038580AB6
:1019F00000000000204C52203D2020253038580A9D
:101A000000000000205043203D2020253038580A97
:101A10000000000020505352203D20253038580A45
:101A2000000000004653522F4641523A0A0000007F
:101A30002043465352203D2020253038580A0000CC
:101A40002048465352203D2020253038580A0000B7
:101A50002044465352203D2020253038580A0000AB
:101A60002041465352203D2020253038580A00009E
:101A7000204D4D464152203D20253038580A000067
:101A80002042464152203D2020253038580A00008F
:101A90004D6973630A000000204C522F4558435F84
:101AA00052455455524E3D20253038580A0000000A
:101AB0005B486172644661756C745D0A00000000E9
:101AC0005B4275734661756C745D0A005B557361AA
:101AD00067654661756C745D0A0000006572726F1F
:101AE000723A20696E202573206C696E6520257519
:101AF0006C00000048656C6C6F2041524D20576FA0
:101B0000726C64210000000053797374656D20636A
:101B10006C6F636B3A20257520487A0A000000003C
:101B20005365636F6E642025640A00004300232D13
:101B3000302B2000686C4C006566674546470030D6
:101B40003132333435363738394142434445460023
:101B50003031323334353637383961626364656623
:011B60000084
:101B640078563412800000200000000080F0FA0251
:101B74000000000000000000000000000000000061
:101B84000000000000000000000000000000000051
:101B94002C1B0000000000000000000000000000FA
:101BA4000000000000000000000000000000000031
:101BB4000000000000000000000000000000000021
:101BC4000000000000000000000000000000000011
:081BD400100000203254769845
:040000030000011DDB
:00000001FF
